:1000000000800020BD010000D91700009D170000EE
:100010009D1700009D1700009D1700009D17000010
:100020009D1700009D1700009D170000D9170000C4
:10003000D91700009D170000D91700008D17000088
:10004000D9170000D9170000D9170000D9170000F0
:10005000D9170000D9170000D9170000D9170000E0
:10006000D9170000D9170000D9170000D9170000D0
:10007000D9170000D9170000D9170000D9170000C0
:10008000D9170000D9170000D9170000D9170000B0
:10009000D9170000D9170000D9170000D9170000A0
:1000A000D9170000D9170000D9170000D917000090
:1000B000D9170000D9170000D9170000D917000080
:1000C000D9170000D9170000D9170000D917000070
:1000D000D9170000D9170000D9170000D917000060
:1000E000D9170000D9170000D9170000D917000050
:1000F000D9170000291C0000D91700002121000099
:10010000D91700003D250000D9170000D9170000BD
:10011000D9170000D9170000D9170000D91700001F
:10012000D9170000D9170000D9170000D91700000F
:10013000D9170000D9170000D9170000D9170000FF
:10014000D9170000D9170000D9170000D9170000EF
:10015000D9170000D9170000D9170000D9170000DF
:10016000D9170000B50B0000D9170000D9170000FF
:10017000D9170000D9170000D9170000D9170000BF
:10018000D9170000D9170000D9170000D9170000AF
:10019000D9170000D9170000D9170000D91700009F
:1001A000D9170000D9170000D9170000D91700008F
:1001B000D9170000D9170000D917000010B5674BF8
:1001C0004CF220521A804DF628121A8000BF00BF50
:1001D00001F006FB4FF01062614B1A60614A083370
:1001E0001A60614A04331A60A3F530432C3B1B6844
:1001F00013F4807F06D100225C4B1A604FF4A852A2
:10020000043B1A605A4B1B7813F0080F04D0584B6C
:100210001A7842F008021A702A22564B1A70564B6E
:10022000564A9A420DD2131D554CE41A24F0030489
:1002300004340023104653495A581A500433A34239
:10024000FAD1514B514A9A4280F08480131F504991
:10025000C91A21F003011A1D1144002243F8042F8A
:100260008B42FBD176E05A581A500433B3F5DE7F47
:10027000F9D1484B8021484A03F8011B9342FBD136
:10028000464B474A1A600A22464B1A702422A3F6AC
:10029000FF731A70A022013B1A7006331A7812F00D
:1002A000020FFBD0404B1A7812F0100FFBD13E4BDF
:1002B0001A7802F00C02082AFAD103223B4B1A707A
:1002C000402201331A7001331A7812F0200FFBD04C
:1002D000354B1A7812F0400FFBD0354A354B1A6077
:1002E000022204331A602022334B1A7006331A7824
:1002F00002F00C020C2AFAD1304A314B1A60314A12
:10030000314B1A600722043B1A6062B600F014FBFE
:10031000164B1B6813F0010F05D02C4800F080FA33
:100320002B4A2C4B1A602C4B1B7813F0400F0AD031
:10033000284B1A68264B9A4205D1244800F070FADF
:100340000022244B1A6002F089FB01F04FFA00F002
:100350009FF8FEE700231248204984E70E2005405D
:1003600030800440823F04000100002B14D0034081
:1003700002D0074000E00740508CFF1F6087FF1F3E
:10038000538CFF1F502E0000B48FFF1F508CFF1F97
:10039000AF8FFF1F00E400E05FE400E008ED00E045
:1003A0000082FF1F00500640064006400440064001
:1003B000000003014480044000400640C0100500D6
:1003C00004800440FF76010014E000E0000000001B
:1003D000A5C3945A1CE0034000F007400000000051
:1003E000FFFFFFFFFFFFFFFFFFFFFFFFFFFFFFFF1D
:1003F000FFFFFFFFFFFFFFFFFFFFFFFFFFFFFFFF0D
:10040000FFFFFFFFFFFFFFFFFFFFFFFFFEFFFFFFFD
:1004100010B5054C237833B9044B13B10448AFF33E
:1004200000800123237010BD508CFF1F00000000CE
:10043000502E000008B5064B1BB106480649AFF325
:1004400000800648036813B1054B03B1984708BD07
:1004500000000000502E0000548CFF1F508CFF1F26
:100460000000000008B50D20012100F00DFA032066
:10047000012100F009FA0420002100F005FA04200F
:100480000249022200F084F908BD00BF6187FF1F06
:1004900008B5FFF7E7FF0D2401264FF4FA65204663
:1004A000314600F0CDF9284600F032FA204600210E
:1004B00000F0C6F94FF47A7000F02AFAEFE700BFB7
:1004C00010B5154B1C681C6014F4805F05D0134BED
:1004D000DB6813B1114BDB68984714F4005F05D05B
:1004E0000E4B1B6913B10D4B1B69984714F0200F7D
:1004F00005D00A4B1B6E13B1084B1B6E984714F0C6
:10050000100F07D0054BD3F884301BB1034BD3F841
:100510008430984710BD00BFA09004406C8CFF1F32
:1005200010B5274B1C681C6014F4803F05D0254B88
:100530001B6813B1234B1B68984714F4003F05D088
:10054000204B5B6813B11F4B5B68984714F0010F99
:1005500005D01C4B1B6C13B11A4B1B6C984714F045
:10056000020F05D0174B5B6C13B1164B5B6C9847B1
:1005700014F0080F05D0134B9B6C13B1114B9B6CFF
:10058000984714F0040F05D00E4BDB6C13B10D4BE4
:10059000DB6C984714F4002F05D00A4B5B6E13B147
:1005A000084B5B6E984714F4802F07D0054BD3F8A7
:1005B00080301BB1034BD3F88030984710BD00BF8B
:1005C000A0A004406C8CFF1F10B5384B1C681C6049
:1005D00014F0080F05D0364B5B6A13B1344B5B6ADD
:1005E000984714F0100F05D0314B9B6A13B1304B74
:1005F0009B6A984714F0400F05D02D4BDB6A13B16E
:100600002B4BDB6A984714F0800F05D0284B1B6BEF
:1006100013B1274B1B6B984714F0200F05D0244BC8
:100620005B6B13B1224B5B6B984714F0010F05D045
:100630001F4BDB6B13B11E4BDB6B984714F0020FA3
:1006400005D01B4B9B6D13B1194B9B6D984714F054
:10065000040F05D0164BDB6D13B1154BDB6D9847BE
:1006600014F4007F05D0124BDB6E13B1104BDB6E20
:10067000984714F4807F05D00D4B1B6F13B10C4BC2
:100680001B6F984714F4806F05D0094B5B6F13B153
:10069000074B5B6F984714F4006F05D0044B9B6FBA
:1006A00013B1034B9B6F984710BD00BFA0B004402F
:1006B0006C8CFF1F10B5264B1C681C6014F0010FDA
:1006C00005D0244B9B6813B1224B9B68984714F0CC
:1006D000800F05D01F4B5B6913B11E4B5B699847B8
:1006E00014F0100F05D01B4B9B6913B1194B9B697C
:1006F000984714F0040F05D0164BDB6913B1154B66
:10070000DB69984714F0080F05D0124B1B6A13B130
:10071000104B1B6A984714F0020F05D00D4B9B6BD2
:1007200013B10C4B9B6B984714F0200F05D0094B6D
:100730001B6D13B1074B1B6D984714F0400F05D08C
:10074000044B5B6D13B1034B5B6D984710BD00BF4D
:10075000A0C004406C8CFF1F10B50B4B1C681C60C4
:1007600014F0020F05D0094B9B6E13B1074B9B6E23
:10077000984714F0010F05D0044BDB6F13B1034B06
:10078000DB6F984710BD00BFA0D004406C8CFF1FEA
:1007900030B4212831D8042A2FD8DFE802F0070925
:1007A000050B03000B2406E00A2404E0082402E001
:1007B0000C2400E00924124B03EBC0035A68114BD0
:1007C000114DC3F89C51114DC3F8A051104DC3F801
:1007D000A451104DC3F8A8510F4DC3F8AC5172B6D7
:1007E000136823F4702313600C4D45F8201043F078
:1007F000807343EA0444146062B630BC704700BFA3
:10080000A42B00000082FF1FC1040000210500008E
:10081000C9050000B5060000590700006C8CFF1FD9
:10082000044B00221A6004490A60044A1060102236
:100830001A60704714D0034004D0034000D0034036
:1008400021281ED80F4B53F8303093F8802212F035
:10085000FF0F08D019B1012283F8802070470122D0
:1008600083F800217047074B03EBC000436821B1B8
:100870001A6842F003021A6070471A6822F00202F6
:100880001A607047A42B000021281CD80E4B03EBE4
:10089000C0035B68012908D10B4A52F8302082F866
:1008A00080124FF4A2721A607047074A52F8302043
:1008B000002082F8800219B94FF480721A607047E4
:1008C00040F203121A607047A42B000072B60C4B62
:1008D0001B680C4A12680C49096862B611F0806FF7
:1008E00002D0322B88BF0132C3F5BB33FF33074937
:1008F000A1FB03039B094FF47A7000FB02307047A1
:1009000018E000E0F48CFF1F04ED00E0ABAAAAAAF7
:1009100038B50546FFF7DAFF044665B1FFF7D6FFA5
:10092000001BB0F57A7F03D3013D04D004F57A743F
:1009300000F080FEF2E738BD10B5254B4FF4000201
:100940001A604FF080721A604FF000721A604FF018
:1009500080621A604FF000621A6000201D4B186020
:100960004BF6FF710433196028231B4A13600832C9
:1009700013600832136008321360083213600832C3
:10098000136008321360083213600922134C22608E
:1009900004F580540434206004342160043423605E
:1009A00008342360143C226004F5FE2404342060E3
:1009B0000B4801600B490B6008310B600A4B1A6051
:1009C00000F05AFE0420FFF7A3FF00F06BFC10BDFF
:1009D00008E100E0048003400C80034000800340F5
:1009E00008800B400C800B4000800B4030B40E4B55
:1009F0001B7843F002020D4C04EBC20460600C480B
:100A0000007800280CBF8824C82444EA0141074D1F
:100A100045F8321080F00100054A107083F00103A0
:100A2000014A137030BC7047608DFF1F0080FF1FAC
:100A3000D98DFF1F10B4431E032B11D872B60A4A7A
:100A400052F8230050B14268074941F82320074A71
:100A500032F813400188611A22F8131062B600E0E0
:100A600000205DF8044B7047508DFF1FA48FFF1FBF
:100A7000013803280DD872B6074B53F820302BB13C
:100A8000002001305B68002BFBD100E0002062B643
:100A900070470020704700BFA48DFF1F38B572B6A5
:100AA00001231B491B4C5A1812F8012C12F0080F95
:100AB00024D09A0054F832506DB9164B03EBC201A2
:100AC00008304860144943F83210144B1A78013A40
:100AD0001A7062B638BD42F0010254F832506DB956
:100AE0000C4B03EBC201083048600D4943F832104B
:100AF0000A4B1A78013A1A7062B638BD0133052BD9
:100B0000D1D162B60022054B1A7000F02FFC38BD1F
:100B1000B42C00000080FF1F88004000CE8DFF1F16
:100B2000C800400010B4431E032B37D8400140F0EA
:100B300010001C4A104472B61B4AD25C032A09D822
:100B4000DFE802F019021B050830022216E0083027
:100B5000042213E0154A52F823201AB9134A42F826
:100B6000231003E0124A52F823205160104A42F841
:100B7000231062B612E0032200E005220A4CE25480
:100B800001F10803436000F00803002B0CBF882329
:100B9000C8230A8843EA0243036062B65DF8044B47
:100BA000704700BF0080FF1F0C8DFF1FA48DFF1F2B
:100BB000B48DFF1F2DE9F84FA34CDFF8E092DFF86A
:100BC000E0A2DFF8E0B22578EDB215F0040F1DD0F9
:100BD0009E4B1B7813F0FF0F16D09D4B1B7803F034
:100BE000FF022BB1531EDBB2994A137003B900BE4A
:100BF000984B1B7803F0FF0233B1531EDBB2954ACA
:100C000013700BB900F0F2FC0423237015F0080FE9
:100C100000F0DC8299F80030DBB21D0940F01D8243
:100C20008D4D9E0805EBC6035A6855F83630C3F360
:100C30008303013B0C2B00F20C82DFE813F0C701A9
:100C4000C7010A020A020A020A020A020A02E401AF
:100C50000A020A020A020D00804913680B605268FA
:100C60004A607F4A45F8362000227E490A607A4968
:100C70000A618A6101217C4A11709BB240F2816253
:100C8000934218D8B3F5D06F2ED2B3F5817F00F020
:100C90001E8106D8802B00F0C980822B00F0CC800A
:100CA00062E140F20232934200F02681B3F5A06F78
:100CB00000F05E8158E142F22102934200F082810D
:100CC00007D8B3F5086F00F0AB80B3F5106F11D003
:100CD0004AE142F22122934200F0418142F2213264
:100CE000934200F045813FE1604B5D68002D40F08C
:100CF000188130E1594B9A78544B1A70564D05F1D2
:100D000080062B6A13F0800F03D0686A083800F061
:100D10002DFB0835B542F4D1DFF88C81002637462B
:100D2000534AB05828B1456800F020FB0DB1284661
:100D3000F9E700234E4973504E4AB3504E4BF058DA
:100D400028B1456800F012FB0DB12846F9E70023F1
:100D500049497350494AB35028F8023F484BFB5C5D
:100D6000023B032B0AD8DFE803F00206020600224A
:100D7000434BDA5502E00122414BDA550137043684
:100D8000102ECDD100223F4B1A7001253E4EDFF8C8
:100D90001C81314F05EB080313F8013C06F8043BB6
:100DA00013F0080F2DD000F0C1FA48B1A90007EBED
:100DB000451200F108035360344A47F8312007E038
:100DC000AB00002247F833202E4B1A7801321A70FC
:100DD00000F0ACFA58B1AB0043F0010307EBC301DC
:100DE00000F108024A601E4A47F8332009E0AB00D0
:100DF00043F00103002247F83320224B1A780132D6
:100E00001A70AA0042F00201002347F8313042F084
:100E1000030247F8323001351D4B9E42BAD116E22B
:100E20000A4B1B781B4D2B700127A6E0194D0023A0
:100E30002B706B700227A0E0084B9B88042B37D9DE
:100E40000F22154B1A70BDE080200740D88DFF1F80
:100E5000618DFF1FDA8DFF1F0080FF1FC48DFF1FF4
:100E6000C8004000F88CFF1FD98DFF1FB82C000070
:100E7000508DFF1FFC8CFF1FA48DFF1FB48DFF1F23
:100E80000C8DFF1FCE8DFF1FC4200740880040003F
:100E9000D4200740D08DFF1FC0200740902007407E
:100EA0009420074098200740A28FFF1FB42C000019
:100EB0009E4A0021117051709D4A12F8233013F0A0
:100EC000020F58D0994D01232B70022755E0994B02
:100ED0009B8803F07F02042A02DC964A52881AB1EA
:100EE0000F22934B1A706DE0914A12F8231021F0F3
:100EF000020102F82310AAE18E4B9B8803F07F02C7
:100F0000042A02DC8B4A52881AB10F22884B1A70CD
:100F100058E0874A12F8231041F0020102F823102A
:100F200095E1844B5E889F88834BA3F10C021146A8
:100F300033F80C0CB04209D133F80A0CB84205D191
:100F4000360A032E0CBF2F78178916E00D690C3373
:100F50000C32002DEBD10F22754B1A7032E0754B1D
:100F60009A78764B1A7072E10F22714B1A7029E051
:100F700000273D4601E002276C4D6E4BDB889F4207
:100F800028BF1F46402F34BF3E46402628463146E4
:100F9000FFF72CFD3544BF1B03D13F2E00F25C81CF
:100FA00010E0402F34BF3E46402628463146FFF72A
:100FB0001DFD3544BF1B01D13F2E03D9604B1D6081
:100FC000604B1F8001238AF8003042E0594B19889A
:100FD00042F22103994212D15B4BD81D12F8011B3A
:100FE00003F8011F8342F9D1584B1B68862B02D1AD
:100FF0000F22574B1A7000200146FFF7F7FC554BA4
:1010000045F8363025E04E4B1E68BEB14D4FB7F85F
:101010000080B8F1400F34BF454640253046294690
:10102000FFF7E4FCC5EB08039BB23B800BB9402DF6
:1010300001D1354400E00025414B1D603D4B1B882C
:10104000B3F5A06F05D13B4B00225A709B788BF80B
:10105000003001238AF80030B5E03F4E9F0806EBD0
:10106000C708D8F80420A2F10800013DEDB213F042
:10107000080F47D000F07AF9384B53F825304BB3BE
:101080005A68364941F8252003F10802C8F80420BF
:10109000334A525D032A12D8DFE802F002060A0E34
:1010A00003212F4A51550AE002212D4A515506E0ED
:1010B00005212B4A515502E00421294A515518F0C7
:1010C000080F0CBF8822C8221B8842EA034346F857
:1010D000373078E0224B5B5D032B0BD8DFE803F061
:1010E0007373020600221E4B5A556CE001221C4B02
:1010F0005A5568E018F0080F0CBF02220322184B63
:101100005A5560E056F837301B0C22F8083C002B8B
:1011100051D0002322F8063C42F8043C114B53F80E
:1011200025300BBB0F4B43F8250021E0D08DFF1F6E
:10113000C0200740C48DFF1FC42C0000E88DFF1F96
:10114000F88CFF1FCC8DFF1FAB8FFF1FAC8FFF1FD5
:10115000618DFF1FC80040000080FF1FA48DFF1F8E
:101160000C8DFF1F508DFF1F3F4B53F825305860EB
:101170003D4B43F825003D4B33F8151032F8082C51
:101180000A4423F8152000F0D1F860B100F10803FB
:10119000C8F8043018F0080F354B364A08BF13461C
:1011A00046F837300FE0002346F83730324B1A78D4
:1011B00001321A7007E018F0080F2D4B2D4A08BFB6
:1011C000134646F8373008232370FCE415F0010F6E
:1011D00022D02A4902230B700022294B1A70294B76
:1011E00024481860284C5C6098602848D8601A61D0
:1011F0009A610D20264B1870FF232648037008388B
:10120000037018300270244A13709F22234B1A7007
:1012100001230B70BDE8F88F15F0800F05D00D226B
:101220001B4B1A708022403B1A7015F0020F06D03B
:10123000184B1A78D2B21A700222083B1A7015F0B5
:10124000100F0ED01022164B1A70BDE8F88F002038
:101250000146FFF7CBFBB5E628460021FFF7C6FBAA
:10126000B0E6BDE8F88F00BFFC8CFF1FA48FFF1F06
:10127000C800400088004000CE8DFF1F942007402A
:10128000608DFF1F0080FF1F108DFF1F648DFF1FEB
:10129000C0200740882007408C200740842007405A
:1012A0008020074008B501F0A9F900231B491A4620
:1012B0005A50C81842600833882BF9D1184B1A6865
:1012C00042F480221A60154BC3F30721154A1170AE
:1012D000C3F30741143211701B0E04321370FF2345
:1012E000343A137008321370783A13700123843241
:1012F000137000216C3211707C3A137070220A4B0B
:101300001A704FF40072A3F241331A60102203F1F5
:10131000C04303F5C8231A7008BD00BF0080FF1F3B
:10132000348004409C20074049E400E072B60D4B35
:101330001A68B2FA82F30B2B02D962B6002070470A
:101340004FF00041D94022EA010206490A6062B624
:10135000054903EBC303DB00C8180022CA504260F2
:10136000704700BF7C87FF1F0084FF1F08B50F4B2D
:10137000C31A0F4AA2FB03131B090B2B14D80D4AE7
:1013800012783AB10C4A127812F0FF0F02D0FFF730
:1013900085FB08BD72B6094A4FF0004121FA03F3FC
:1013A00011681943116062B608BD00BF0084FF1FB9
:1013B000398EE338CE8DFF1FD88DFF1F7C87FF1F2E
:1013C00010B5134B1B6853B9124B1B7813F0FF0F6A
:1013D00018D00320FFF72EFB0D4B1860A8B10C4B63
:1013E000186843885A1C03441C7A03889A4206D31F
:1013F000FFF7BCFF0022064B1A60204610BD42805A
:10140000204610BD4FF0FF3010BD4FF0FF3010BD33
:10141000E48DFF1FD88DFF1F08B50D4B1B6883B9E6
:101420000C4B1B7813F0FF0F08D00320FFF702FBD3
:10143000074B186028B94FF0FF3008BD4FF0FF3060
:1014400008BD034B1B685A881344187A08BD00BFB7
:10145000E48DFF1FD88DFF1F044B9888044B1B6839
:101460001BB11A885B88D31A18447047A48FFF1FDA
:10147000E48DFF1F2DE9F04704460122374B1A7017
:101480000E46002964D0DFF8E080DFF8E0909A464D
:10149000334FD8F8003083BB99F8003013F0FF0FBA
:1014A00006D100222D4B1A704FF0FF30BDE8F087B7
:1014B0004AF2F9250420FFF7DBFA07280AD80123AE
:1014C0008AF80030FFF732FFC8F80000A8B90023FF
:1014D0008AF80030013D01D03B7833B10122204B26
:1014E0001A704FF0FF30BDE8F08700F0A3F899F8CC
:1014F000003013F0FF0FDDD1D3E700233B70D8F8A5
:1015000000104A88C2F14005AE4238BF354602F1AC
:1015100008030B442A444A80761B3DB1254414F845
:10152000012B03F8012BAC42F9D100E025464B8892
:101530003F2B07D940230B800420FFF7F3FA002349
:10154000C8F800300522074B1A700EB12C46A0E7F0
:101550000020024B1870BDE8F08700BFDB8DFF1F35
:10156000E08DFF1FDA8DFF1FDC8DFF1FD88DFF1F61
:1015700000B583B002AB03F8010D18460121FFF757
:1015800079FF03B05DF804FB10B5144B1B7813F022
:10159000FF0F21D00122124B1A70124B196851B162
:1015A0000024114B1C704B880B800420FFF7BAFA03
:1015B0000C4B1C600DE0FFF7B9FE014630B1002274
:1015C000094B1A700420FFF7ADFA02E00122064B26
:1015D0001A700022024B1A7010BD00BFD88DFF1F79
:1015E000DB8DFF1FDC8DFF1FDA8DFF1F08B50E4B53
:1015F0001B7813F0FF0F16D10C4B196841B14B88C3
:101600000B800420FFF78EFA0022084B1A6008BDF9
:10161000FFF78CFE014618B10420FFF783FA08BDDE
:101620000122034B1A7008BDDB8DFF1FDC8DFF1FED
:10163000DA8DFF1F08B50F4B1B78CBB901220D4B7C
:101640001A70FFF709FF08B101F0CAF900F088FA33
:1016500008B101F08DF800F0FFFC08B101F00EF9BF
:1016600000F01CFF08B101F08FF90022014B1A7045
:1016700008BD00BFE98DFF1F60223A4B1A70E122BE
:1016800001331A70384B1B78082B10D1012203F15B
:10169000804303F56C331A60132334490B6001F562
:1016A000FF2101F2FC710A60314A13601FE00A2B2E
:1016B0000DD139222F4B1A6013232C490B6001F5F1
:1016C000FF2101F2FC710A60294A13600FE00C2B24
:1016D0000CBF35223D22274B1A60122323490B6091
:1016E00001F5FF2101F2FC710A60214A1360224BCF
:1016F0001B7833B10123214A136002F500221360E5
:1017000005E000231D4A136002F5002213601C4B04
:101710001B78012B06D880231A4A136002F5002299
:1017200013601AE0042B06D88423164A136002F5CE
:101730000022136011E0082B06D88523114A13609C
:1017400002F50022136008E0102B94BF8623872344
:101750000C4A136002F50022136001220A4B1A7032
:10176000704700BF004007408087FF1F0CB0034058
:101770000CB00B4008B00340EB8DFF1F20B00340BE
:101780008187FF1F24B00340EA8DFF1F024B1A68B8
:1017900001321A60704700BFF48CFF1F08B50D4C72
:1017A000236813F4802F01D0FFF704FA236813F4A1
:1017B000806F01D000F038FA236813F4006F01D075
:1017C00000F0AEFC236813F4805FE9D000F0B6FEB1
:1017D000E6E700BF3480044008B5FFF7DFFF00BF35
:1017E0001022014B1A80704700200540704700BF4F
:1017F000EFF31383ABB9EFF31083ABB9EFF30583CA
:1018000023B10F2B05D9094A985C03E04FF480708F
:1018100000E00020EFF311833BB1834238BF18464C
:1018200070474FF0FF30704700207047F0E300E052
:10183000194B1A6842F480621A600023174A137029
:10184000174A1370174A1370174A1370174A137008
:1018500040F21332164B1A604FF4517204331A607F
:10186000C0F34432134B1A70C0F347125A7000F0A1
:101870001F00987204229A700221D9745A75882226
:101880001A743C22DA7040220B4B1A704FF400524B
:10189000A3F229331A60704734800440708EFF1F12
:1018A000ED8DFF1F788EFF1F718EFF1FEC8DFF1FC8
:1018B00040A0044000A006402DE400E0164B9B78B9
:1018C00003F0EC0300F00302134310F0040F18BF01
:1018D00043F01003104A937000F00F03042B04D15F
:1018E0001346927942F040029A710B4B5A7902F0FA
:1018F000EF0210F0100F18BF42F01002064B5A71A1
:101900009B7903F0EF0310F0200F18BF43F0100392
:10191000014A9371704700BF00A0064010B5114BFB
:101920001B6813F4806F1CD00F4B1B7813F0FF0F54
:1019300006D00D4CFFF77EFE237813F0FF0FF9D190
:101940004FF40052094B1A600023094AD37040F249
:10195000031208490A6004310A60074A1370074AF3
:10196000137010BD34800440EC8DFF1F84E100E053
:1019700000A0064040A00440708EFF1FED8DFF1FA9
:1019800010B50446094A137813F0FF0FFBD1204627
:101990000121FEF779FF20460021FEF751FF044B9D
:1019A00053F83420034B1A6010BD00BFEC8DFF1FAD
:1019B000A42B0000748EFF1F2DE9F04107461F4B3A
:1019C0001B6813F4806F37D01D4B1B680BB10122CD
:1019D0001A701C4B1C780134402C28BF00241A4D6F
:1019E0001A4EDFF86C8017E0FFF702FF40280FDC8B
:1019F000337913F0800F0FD02B780133402B28BFA1
:101A0000002318F80320D2B2F271DBB22B7003E08E
:101A1000FF2801DDFFF70EFE2B78DBB29C42E3D0FE
:101A2000FFB20B4B1F5501220A4B1A70E4B2054B53
:101A30001C70BC22054BDA70BDE8F0813480044094
:101A4000748EFF1F788EFF1F718EFF1F00A006404F
:101A5000F08DFF1FEC8DFF1F2DE9F84F0746284B37
:101A60001B6813F4806F49D0264B1B680BB1012211
:101A70001A7007EB010B5F453DD2DFF89890224EBC
:101A8000DFF88C80DFF890A099F800400134402CFA
:101A900028BF00243578EDB2A54220D1BC2388F8B8
:101AA0000330FFF7A5FE402811DC98F8043013F04E
:101AB000800F10D033780133402B28BF00231AF851
:101AC0000320D2B288F80720DBB2337003E0FF288E
:101AD00001DDFFF7AFFD3378DBB29D42E1D017F8AF
:101AE000013B0AF804300122084B1A70E4B289F86D
:101AF00000405F45C8D1BC22054BDA70BDE8F88FC5
:101B000034800440748EFF1F718EFF1FEC8DFF1F09
:101B100000A00640788EFF1FF08DFF1F10B5064B0A
:101B20001B7813F0FF0F06D0034CFFF783FD2378DB
:101B300013F0FF0FF9D110BDEC8DFF1F064B1B7882
:101B4000DBB2064A1278D2B293422CBF3F3202F186
:101B5000FF32D01A704700BF788EFF1F718EFF1FB3
:101B6000054B1878C0B2054B1B78DBB2984238BFE2
:101B70004030C01A704700BF708EFF1FED8DFF1FF1
:101B80000A4B1A78D2B20A4B1B78DBB29A4209D0C0
:101B90000133402B28BF0023064AD05CDBB2044A45
:101BA000137070474FF0FF30704700BF708EFF1FFB
:101BB000ED8DFF1F308EFF1F094B1A78D2B2094BF3
:101BC0001B78DBB29A4207D00133402B28BF002399
:101BD000054AD05CC0B270474FF0FF30704700BF7D
:101BE000708EFF1FED8DFF1F308EFF1F0A4B1B688D
:101BF00013F4806F0FD0094BDA7802F0CB02DA7061
:101C000040225A74DA7842F03402DA70044B1A78BF
:101C1000D2B2044B1A7070473480044000A00640D2
:101C2000ED8DFF1F708EFF1F70B4364B1B7913F0C4
:101C3000300F25D072B6334B9B7D03F0FF022BB9DA
:101C4000304BDA7940225A7462B619E062B62E4BF4
:101C50001978C9B22D4B1D78EDB22A4C2C4EE37980
:101C6000D8B24B1C402B28BF0023AB421CBFF05402
:101C70001946531E13F0FF02F1D1C9B2224B19705D
:101C8000204BDA78D2B212F0800F27D01B7913F0F4
:101C9000800F23D01F4B1C78E4B21F4B1B78DBB2A4
:101CA0009C4210D017491D4D01E0A3420BD00133D7
:101CB000402B28BF00230879E85CC0B2C871087DBA
:101CC000C0B20728F1D9DBB213490B700D4B1B7959
:101CD00013F0800F02D07C210A4BD97012F0400F14
:101CE0000ED0084B1B7913F0400F09D000220C4B8B
:101CF0001A700C4B1B6803B11A703C22014BDA704E
:101D000070BC704700A00640708EFF1FED8DFF1F56
:101D1000308EFF1F788EFF1F718EFF1FF08DFF1F0B
:101D2000EC8DFF1F748EFF1F194B1A6842F400627E
:101D30001A600023174A1370174A1370174A13705A
:101D4000174A1370174A137040F21332164B1A6079
:101D50004FF4517204331A60C0F34432134B1A70BB
:101D6000C0F347125A7000F01F00987204229A7054
:101D70000221D9745A7588221A743C22DA704022E2
:101D80000B4B1A704FF40042A3F22B331A607047CA
:101D900034800440E48EFF1F7A8EFF1FEC8EFF1FFD
:101DA000E58EFF1F798EFF1F0CB0044000B0064087
:101DB0002FE400E0164B9B7803F0EC0300F00302E5
:101DC000134310F0040F18BF43F01003104A937030
:101DD00000F00F03042B04D11346927942F0400225
:101DE0009A710B4B5A7902F0EF0210F0100F18BFE6
:101DF00042F01002064B5A719B7903F0EF0310F08A
:101E0000200F18BF43F01003014A9371704700BFC1
:101E100000B0064010B5114B1B6813F4006F1CD0C6
:101E20000F4B1B7813F0FF0F06D00D4CFFF702FC91
:101E3000237813F0FF0FF9D14FF40042094B1A60D9
:101E40000023094AD37040F2031208490A600431A2
:101E50000A60074A1370074A137010BD34800440AB
:101E6000798EFF1F84E100E000B006400CB0044012
:101E7000E48EFF1F7A8EFF1F10B50446094A1378BF
:101E800013F0FF0FFBD120460121FEF7FDFC204699
:101E90000021FEF7D5FC044B53F83420034B1A60A5
:101EA00010BD00BF798EFF1FA42B0000E88EFF1F1E
:101EB0002DE9F04107461F4B1B6813F4006F37D024
:101EC0001D4B1B680BB101221A701C4B1C7801348E
:101ED000282C28BF00241A4D1A4EDFF86C8017E01A
:101EE000FFF786FC40280FDC337913F0800F0FD00A
:101EF0002B780133282B28BF002318F80320D2B2F7
:101F0000F271DBB22B7003E0FF2801DDFFF792FBDB
:101F10002B78DBB29C42E3D0FFB20B4B1F55012262
:101F20000A4B1A70E4B2054B1C70BC22054BDA70E8
:101F3000BDE8F08134800440E88EFF1FEC8EFF1F67
:101F4000E58EFF1F00B006407C8EFF1F798EFF1FBD
:101F50002DE9F84F0746284B1B6813F4006F49D052
:101F6000264B1B680BB101221A7007EB010B5F4572
:101F70003DD2DFF89890224EDFF88C80DFF890A0F9
:101F800099F800400134282C28BF00243578EDB2A0
:101F9000A54220D1BC2388F80330FFF729FC402854
:101FA00011DC98F8043013F0800F10D0337801332F
:101FB000282B28BF00231AF80320D2B288F8072064
:101FC000DBB2337003E0FF2801DDFFF733FB33782A
:101FD000DBB29D42E1D017F8013B0AF80430012240
:101FE000084B1A70E4B289F800405F45C8D1BC22A2
:101FF000054BDA70BDE8F88F34800440E88EFF1F8F
:10200000E58EFF1F798EFF1F00B00640EC8EFF1F8C
:102010007C8EFF1F10B5064B1B7813F0FF0F06D008
:10202000034CFFF707FB237813F0FF0FF9D110BD26
:10203000798EFF1F064B1B78DBB2064A1278D2B2AC
:1020400093422CBF273202F1FF32D01A704700BFF3
:10205000EC8EFF1FE58EFF1F054B1878C0B2054BB5
:102060001B78DBB2984238BF4030C01A704700BFBF
:10207000E48EFF1F7A8EFF1F0A4B1A78D2B20A4BEA
:102080001B78DBB29A4209D00133402B28BF0023D2
:10209000064AD05CDBB2044A137070474FF0FF3041
:1020A000704700BFE48EFF1F7A8EFF1FA48EFF1FB4
:1020B000094B1A78D2B2094B1B78DBB29A4207D08F
:1020C0000133402B28BF0023054AD05CC0B27047C3
:1020D0004FF0FF30704700BFE48EFF1F7A8EFF1F66
:1020E000A48EFF1F0A4B1B6813F4006F0FD0094B1F
:1020F000DA7802F0CB02DA7040225A74DA7842F0D1
:102100003402DA70044B1A78D2B2044B1A7070475A
:102110003480044000B006407A8EFF1FE48EFF1F1B
:1021200070B4364B1B7913F0300F25D072B6334B99
:102130009B7D03F0FF022BB9304BDA7940225A74B1
:1021400062B619E062B62E4B1978C9B22D4B1D78D4
:10215000EDB22A4C2C4EE379D8B24B1C402B28BF51
:102160000023AB421CBFF0541946531E13F0FF026C
:10217000F1D1C9B2224B1970204BDA78D2B212F0E9
:10218000800F27D01B7913F0800F23D01F4B1C78B2
:10219000E4B21F4B1B78DBB29C4210D017491D4D97
:1021A00001E0A3420BD00133282B28BF002308797C
:1021B000E85CC0B2C871087DC0B20728F1D9DBB2B3
:1021C00013490B700D4B1B7913F0800F02D07C214B
:1021D0000A4BD97012F0400F0ED0084B1B7913F048
:1021E000400F09D000220C4B1A700C4B1B6803B136
:1021F0001A703C22014BDA7070BC704700B0064088
:10220000E48EFF1F7A8EFF1FA48EFF1FEC8EFF1F30
:10221000E58EFF1F7C8EFF1F798EFF1FE88EFF1F4C
:10222000174B1A6842F480521A600023154A137043
:10223000154A1370154A1370154A1370154A137016
:1022400040F21331144A11604FF45171043211609D
:10225000C0F34431114A1170C0F34711517000F0BE
:102260001F009072937013742C23D37040220C4B78
:102270001A704FF40032A3F22D331A60704700BF7A
:1022800034800440588FFF1FEE8EFF1F608FFF1FAA
:10229000598FFF1FED8EFF1F08C0044000C006408D
:1022A00031E400E0164B9B7803F0EC0300F00302EE
:1022B000134310F0040F18BF43F01003104A93703B
:1022C00000F00F03042B04D11346927942F0400230
:1022D0009A710B4B5A7902F0EF0210F0100F18BFF1
:1022E00042F01002064B5A719B7903F0EF0310F095
:1022F000200F18BF43F01003014A9371704700BFCD
:1023000000C0064010B5114B1B6813F4805F1CD051
:102310000F4B1B7813F0FF0F06D00D4CFFF78AF917
:10232000237813F0FF0FF9D14FF40032094B1A60F4
:102330000023094AD37040F2031208490A600431AD
:102340000A60074A1370074A137010BD34800440B6
:10235000ED8EFF1F84E100E000C0064008C004408D
:10236000588FFF1FEE8EFF1F10B50446094A1378E1
:1023700013F0FF0FFBD120460121FEF785FA20461E
:102380000021FEF75DFA044B53F83420034B1A602A
:1023900010BD00BFED8EFF1FA42B00005C8FFF1F40
:1023A0002DE9F04107461F4B1B6813F4805F37D0BF
:1023B0001D4B1B680BB101221A701C4B1C78013499
:1023C000282C28BF00241A4D1A4EDFF86C8017E025
:1023D000FFF70EFA40280FDC337913F0800F0FD08F
:1023E0002B780133282B28BF002318F80320D2B202
:1023F000F271DBB22B7003E0FF2801DDFFF71AF961
:102400002B78DBB29C42E3D0FFB20B4B1F5501226D
:102410000A4B1A70E4B2054B1C70AC22054BDA7003
:10242000BDE8F081348004405C8FFF1F608FFF1F88
:10243000598FFF1F00C00640F08EFF1FED8EFF1F5B
:1024400038B505460C4629B115F8010BFFF7A8FF72
:10245000013CF9D138BD00BF10B5064B1B7813F015
:10246000FF0F06D0034CFFF7E5F8237813F0FF0FBA
:10247000F9D110BDED8EFF1F064B1B78DBB2064A6B
:102480001278D2B293422CBF273202F1FF32D01A17
:10249000704700BF608FFF1F598FFF1F054B1878D3
:1024A000C0B2054B1B78DBB2984238BF4030C01A2F
:1024B000704700BF588FFF1FEE8EFF1F0A4B1A7820
:1024C000D2B20A4B1B78DBB29A4209D00133402BBF
:1024D00028BF0023064AD05CDBB2044A1370704761
:1024E0004FF0FF30704700BF588FFF1FEE8EFF1F69
:1024F000188FFF1F094B1A78D2B2094B1B78DBB239
:102500009A4207D00133402B28BF0023054AD05CF4
:10251000C0B270474FF0FF30704700BF588FFF1FA9
:10252000EE8EFF1F188FFF1F024B1A78D2B2024B9C
:102530001A707047EE8EFF1F588FFF1F264B1B79B6
:1025400013F0200F12D0244BDB79D9B2234B1B7828
:102550000133402B28BF0023214A1278D2B29A427D
:1025600004D0204AD154DBB21C4A13701A4BDB78DA
:10257000DBB213F0800F1CD0174A127912F0800FD3
:1025800017D0194A1178C9B2184A1278D2B29142BA
:1025900003D16C21104AD1700BE00132282A28BFE8
:1025A00000221349885CC0B20B49C871D2B20F49EE
:1025B0000A7013F0400F0ED0074B1B7913F0400F39
:1025C00009D000220B4B1A700B4B1B6803B11A7019
:1025D0002C22014BDA70704700C00640588FFF1F55
:1025E000EE8EFF1F188FFF1F608FFF1F598FFF1F79
:1025F000F08EFF1FED8EFF1F5C8FFF1F00B585B0B3
:1026000072B61B4B70221A7041211A4A11700F21A9
:10261000013A117080221A701A46137813F0800F55
:10262000FBD0154B186862B6144B98429CBF00EB68
:102630008000400001A90A2200F0EEF99DF8043064
:102640007BB908E001A9595C31B1918002320133B4
:102650000A2BF7D100E0002301335B00084A137016
:1026600003E0074A53800123ECE705B05DF804FB63
:102670000000024007000240080002407F969800D8
:102680001088FF1F08B503681B68C9B2984708BDCA
:1026900008B503681B68C9B2984708BD08B5036848
:1026A0001B68C9B2984708BD08B503681B68C9B262
:1026B000984708BD08B54B0803F1376000F5D830DE
:1026C000B0FBF1F0FFF7B4F808BD00BF10B5144639
:1026D0004B0803F1376000F5D830B0FBF1F0FFF79D
:1026E000A7F82046FFF7EAF810BD00BF08B5FFF7CE
:1026F00015F908BD08B50846FFF742F908BD00BF47
:1027000008B5FFF72DFA08BD08B5FFF755FA08BD63
:1027100008B5FFF735FA08BD08B5FFF7FFF908BDA2
:1027200008B5FFF763FA08BD08B5FFF707FA08BD5B
:1027300008B50846FFF740F9012008BD08B508466E
:10274000FFF73AF9012008BD10B5144608461146B6
:10275000FFF782F9204610BD38B50D46084600F057
:102760004FF9044628462146FFF776F9204638BD42
:10277000704700BF044B00221A714FF47A719960C0
:102780001A73024A1A607047648FFF1F182D0000E9
:1027900008B503681B68C9B2984708BD08B5036847
:1027A0001B68C9B2984708BD08B503681B68C9B261
:1027B000984708BD08B503681B68C9B2984708BDAB
:1027C00008B54B0803F1376000F5D830B0FBF1F0E5
:1027D000FFF7AAFA08BD00BF10B514464B0803F175
:1027E000376000F5D830B0FBF1F0FFF79DFA2046D6
:1027F000FFF7E0FA10BD00BF08B5FFF70BFB08BDFF
:1028000008B50846FFF738FB08BD00BF08B5FFF75D
:1028100023FC08BD08B5FFF74BFC08BD08B5FFF762
:102820002BFC08BD08B5FFF7F5FB08BD08B5FFF7A1
:1028300059FC08BD08B5FFF7FDFB08BD08B5084603
:10284000FFF736FB012008BD08B50846FFF730FB4F
:10285000012008BD10B5144608461146FFF778FB65
:10286000204610BD38B50D46084600F0C9F80446AC
:1028700028462146FFF76CFB204638BD704700BF55
:10288000044B00221A714FF47A7199601A73024A4C
:102890001A607047748FFF1F682D000008B5036829
:1028A0001B68C9B2984708BD08B503681B68C9B260
:1028B000984708BD08B503681B68C9B2984708BDAA
:1028C00008B503681B68C9B2984708BD08B54B082E
:1028D00003F1B76000F55840B0FBF1F0FFF7A0FC42
:1028E00008BD00BF10B514464B0803F1B76000F5F2
:1028F0005840B0FBF1F0FFF793FC2046FFF7D2FC05
:1029000010BD00BF08B5FFF7FDFC08BD08B50846BF
:10291000FFF72AFD08BD00BF08B5FFF7BFFD08BDE2
:1029200008B5FFF7E7FD08BD08B5FFF7C7FD08BD0F
:1029300008B5FFF791FD08BD08B5FFF7F5FD08BD27
:1029400008B5FFF799FD08BD08B50846FFF728FD53
:10295000012008BD08B50846FFF722FD012008BD8B
:1029600010B5144608461146FFF76AFD204610BD13
:1029700038B50D46084600F043F80446284621467F
:10298000FFF75EFD204638BD704700BF044B0022B4
:102990001A714FF47A7199601A73024A1A6070477B
:1029A000848FFF1FB82D000008B5FEF755FD08BD48
:1029B00008B5FEF705FD08BD08B5FEF72DFD08BDFD
:1029C00008B5FEF7E1FD08BD08B50846FEF7D0FDE5
:1029D00008BD00BF08B508461146FEF74BFD08BD0F
:1029E000704700BF044B00221A714FF47A7199604E
:1029F0001A73024A1A607047948FFF1F082E000056
:102A000003782BB100230133C25C002AFBD100E024
:102A100000231846704700BF30B40023B0FBF2F427
:102A200002FB14041D46092C94BF30343734E4B241
:102A3000CC54B0FBF2F008B10133EFE70D440022B3
:102A40006A70934207DD885CCC5C8C54C8540132B8
:102A5000013B9A42F7DB084630BC704770B50F4E19
:102A60000F4D761BB61007D0043D0024013455F8F5
:102A7000043F9847A642F9D10A4E0B4D761B00F051
:102A8000D3F9B61008D0043D0024013455F8043FB2
:102A90009847A642F9D170BD70BD00BF342E00002A
:102AA000342E00004C2E0000342E0000024B13B1D7
:102AB000024800F005B8704700000000CD2A000071
:102AC000014600200246034600F018B838B5094D0B
:102AD000094C641BA41018BF05EB840505D0013C0C
:102AE00055F8043D9847002CF9D1BDE8384000F076
:102AF000ADB900BF0000000000000000F0B5274C99
:102B00002668D6F8484185B00746002C41D0656854
:102B10001F2D1EDD224818B94FF0FF3005B0F0BD63
:102B20004FF4C870039102920193AFF300800399B0
:102B3000029A019B04460028EED0D6F84851256041
:102B4000002060600546C6F84841C4F88801C4F812
:102B50008C013FB9AB1C00200135656044F823109F
:102B600005B0F0BD04EB85004FF0010CC0F88820E3
:102B7000D4F888610CFA05F21643022FC4F8886174
:102B8000C0F80831E6D1D4F88C311A43C4F88C214E
:102B9000E0E706F5A674C6F84841B8E7242E000021
:102BA000000000004008FE4340A004404408FE43EB
:102BB00044A004400018FE4300C004403000FE431F
:102BC000309004403400FE43349004401C18FE430F
:102BD0001CC004401018FE4310C004400818FE43F7
:102BE00008C004400C18FE430CC004400C10FE4307
:102BF0000CB004401010FE4310B004401810FE4307
:102C000018B004401C10FE431CB004401410FE43D6
:102C100014B004400418FE4304C004400010FE43F6
:102C200000B004400008FE4300A004400408FE4336
:102C300004A004400C08FE430CA004400808FE4316
:102C400008A004401418FE4314C004401818FE43A2
:102C500018C004400410FE4304B004400810FE43B2
:102C600008B004401400FE43149004404C08FE4396
:102C70004CA004400420FE4304D004402410FE4332
:102C800024B004402010FE4320B004402810FE432E
:102C900028B004402C10FE432CB004400020FE431A
:102CA00000D004404808FE4348A004401000FE4302
:102CB0001090044000151915000100008487FF1FC3
:102CC0001200000000020000B087FF1F4300000058
:102CD000000300000C88FF1F00000000010309042E
:102CE0009887FF1F0000000002030904F487FF1FFC
:102CF00000000000030309041088FF1F000000000B
:102D0000000000000000000000000000FFFFFFFFC7
:102D100000000000000000003127000049270000EB
:102D200001270000112700000927000019270000D3
:102D3000B5260000CD260000ED260000F526000097
:102D40002127000029270000852600009126000089
:102D50009D260000A9260000592700003D270000FD
:102D600000000000000000003D2800005528000081
:102D70000D2800001D28000015280000252800004F
:102D8000C1270000D9270000F92700000128000012
:102D90002D28000035280000912700009D27000005
:102DA000A9270000B5270000652800004928000079
:102DB0000000000000000000492900006129000017
:102DC00019290000292900002129000031290000CB
:102DD000CD280000E5280000052900000D2900008D
:102DE00039290000412900009D280000A928000081
:102DF000B5280000C12800007129000055290000F5
:102E00000000000000000000C9290000D5290000D2
:102E1000A9290000B1290000B9290000C12900003A
:102E2000430000002888FF1FF8B500BFF8BC08BCAD
:102E30009E467047AD2A000035040000752700004B
:0C2E4000812800008D290000E529000019
:042E4C00F8B500BF16
:102E50004FF48053044A136000BF00BF00BF00BF9F
:102E600000BF04321360704704F00F40FFFFFFFF04
:102E70000A0400001201000202000040C016830490
:102E80000001010203010000180354006500650001
:102E90006E00730079006400750069006E006F00B9
:102EA00009024300020100C03209040000010202CD
:102EB000010005240010010524010101042402067B
:102EC00005240600010705820310004009040100E3
:102ED000020A000000070503024000000705840203
:102EE000400000001603550053004200200053002C
:102EF00065007200690061006C00000004030904B1
:102F00000C030000000000000000000000000000B2
:102F1000000000000000000000000000148BFF1FF4
:102F20007C8BFF1FE48BFF1F0000000000000000EF
:102F30000000000000000000000000000000000091
:102F4000000000000000000000000000202E000033
:102F50000000000000000000000000000000000071
:102F60000000000000000000000000000000000061
:102F70000000000000000000000000000000000051
:102F80000000000000000000000000000000000041
:102F90000000000000000000000000000000000031
:102FA0000000000000000000000000000000000021
:102FB0000000000000000000000000000000000011
:102FC00001000000000000000E33CDAB34126DE6AE
:102FD000ECDE05000B000000000000000000000017
:102FE00000000000000000000000000000000000E1
:102FF00000000000000000000000000000000000D1
:1030000000000000000000000000000000000000C0
:1030100000000000000000000000000000000000B0
:00000001FF
